:020000040800F2
:10000000E00A0020290200088F1300081D100008D4
:100010008D130008730400083D1400080000000060
:100020000000000000000000000000009313000822
:1000300075040008000000009113000895130008E3
:10004000430200084302000843020008430200087C
:10005000430200084302000843020008430200086C
:10006000430200084302000843020008430200085C
:10007000430200084302000843020008430200084C
:10008000430200084302000843020008430200083C
:10009000430200084302000843020008430200082C
:1000A000430200084302000843020008430200081C
:1000B000430200084302000843020008430200080C
:1000C00043020008430200084302000843020008FC
:1000D00043020008430200084302000843020008EC
:1000E00043020008430200084302000843020008DC
:1000F00043020008430200084302000843020008CC
:1001000043020008430200084302000843020008BB
:1001100043020008430200084302000843020008AB
:10012000430200084302000843020008430200089B
:10013000430200084302000843020008430200088B
:10014000430200084302000843020008430200087B
:10015000430200084302000843020008430200086B
:10016000430200084302000843020008430200085B
:100170004302000843020008430200080000000098
:10018000430200084302000800F002F800F03CF8C7
:100190000AA090E8000C82448344AAF10107DA45E2
:1001A00001D100F031F8AFF2090EBAE80F0013F0F8
:1001B000010F18BFFB1A43F0010318477429000010
:1001C00094290000103A24BF78C878C1FAD85207A1
:1001D00024BF30C830C144BF04680C6070470000C1
:1001E0000023002400250026103A28BF78C1FBD840
:1001F000520728BF30C148BF0B6070471FB501F0E0
:1002000085FA1FBD10B510BD00F0FEF81146FFF7CE
:10021000F5FF01F025F900F01CF903B4FFF7F2FF38
:1002200003BC00F01FF90000094880470948004757
:10023000FEE7FEE7FEE7FEE7FEE7FEE7FEE7FEE796
:10024000FEE7FEE704480549054A064B70470000F3
:100250002D14000889010008E0040020E00A0020B5
:10026000E0060020E006002053EA020C00F069805E
:100270002DE9F04B4FF00006002B1FBFB3FA83F5BA
:1002800003FA05F424FA05F65E4012BF1643B2FAEB
:1002900082F502FA05F4C5F120051EBF22FA05FC1D
:1002A00044EA0C04203556EA044C4FEA144418BFC3
:1002B000641C4FF000084FF00009904271EB030CF2
:1002C00039D3002919BFB1FA81F701FA07F6B0FA5C
:1002D00080F700FA07F6C7F120071EBF20FA07FCD7
:1002E00046EA0C062037B6FBF4FCA7EB0507103FE7
:1002F00007F01F0BCBF120060CFA0BFB2CFA06F6CD
:1003000044BFB3460026202FA4BF5E464FF0000B2B
:100310005BEA060C08BF4FF0010B19EB0B09ABFBB6
:10032000027C48EB0608C01B06FB02CC0BFB03CC8F
:1003300071EB0C01C1E70B46024641464846BDE859
:10034000F08B13B54FF000004FF00001AFF30080C9
:10035000BDE81C40704702F0FF0343EA032242EA73
:10036000024200F02CB84FF0000200B5134694464C
:100370009646203922BFA0E80C50A0E80C50B1F1FD
:100380002001BFF4F7AF090728BFA0E80C5048BF11
:100390000CC05DF804EB890028BF40F8042B08BFAF
:1003A000704748BF20F8022B11F0804F18BF00F8AB
:1003B000012B70477047704770474FF000020429C7
:1003C000C0F0128010F0030C3FF4CFAFCCF1040C5E
:1003D000BCF1020F18BF00F8012BA8BF20F8022BB8
:1003E000A1EB0C01FFF7C1BF5FEAC17C24BF00F89D
:1003F000012B00F8012B48BF00F8012B70470000CB
:1004000000487047800400207546FFF7F9FFAE46AC
:1004100005006946534620F00700854618B020B510
:10042000FFF710FFBDE820404FF000064FF0000737
:100430004FF000084FF0000B21F00701AC46ACE88C
:10044000C009ACE8C009ACE8C009ACE8C0098D46F9
:10045000704710B50446AFF300802046BDE8104059
:10046000FFF7DBBE01491820ABBEFEE72600020005
:100470007047FEE7704772B6FEE7000070B50446AD
:1004800000F006F90546601C02D0044800780444D8
:1004900000F0FEF8401BA042FAD370BD1C00002003
:1004A0002DE9F84FDFF8BCA10022012503264FF00B
:1004B0000F090AF1040BAAF1040E00BF0B6805FA3C
:1004C00002F42340A34270D10F7907F00307012FF4
:1004D00001D0022F16D187684FEA420806FA08FCBD
:1004E00027EA0C07D1F80CC00CFA08FC4CEA070C00
:1004F000C0F808C04768A7430C79C4F300149440BF
:100500003C4344600C79E443A4070AD0C4684FEA32
:10051000420C06FA0CF7BC438F6807FA0CF7274326
:10052000C7600C7904F00304022C12D1D40800EB4C
:10053000840CDCF820405707FF0E09FA07F824EA7C
:100540000804D1F8108008FA07F848EA0408CCF843
:10055000208004684FEA420C06FA0CF7BC430F797E
:1005600007F0030707FA0CF7274307604C6814F4F9
:10057000403F70D03C4C276847F480472760246890
:1005800022F0030704F480440094384C07EB040C79
:10059000DCF8084897074FEA177809FA08F7BC43D0
:1005A000334FB84202D1002724E054E0314FB84223
:1005B00001D101271EE0304FB84201D1022719E0D6
:1005C0002E4FB84201D1032714E02D4FB84201D17C
:1005D00004270FE02B4FB84201D105270AE02A4F2C
:1005E000B84201D1062705E0284FB84201D10727BC
:1005F00000E0082707FA08F72743CCF80878DAF86C
:1006000000405746D1F804C09C435FEACC2C00D58B
:100610001C433C60DBF800405F46D1F804C09C43BB
:100620005FEA8C2C00D51C433C60DEF80040774626
:10063000D1F804C09C435FEA8C3C00D51C433C606D
:10064000084F083F3C68D1F804C09C435FEACC3CAB
:1006500000D51C433C60521C102AFFF42FAFBDE8AC
:10066000F88F0000083C014044380240003001404F
:10067000000002400004024000080240000C02405A
:10068000001002400014024000180240001C02400A
:1006900001488068704700001C00002070B504000D
:1006A00025D094F83D00002520B984F83C50204620
:1006B00000F050F9242084F83D002068016821F002
:1006C000010101602068016841F400410160206877
:1006D000016821F40041016000F096FA4D4A61681A
:1006E000914201D84C4900E04C49884201D2012096
:1006F00070BD4B492368B0FBF1F15E6826F03F0600
:100700000E435E606368934206D94FF49673594373
:100710004FF47A73B1FBF3F12368491C1E6A26F08B
:100720003F06314319626168914210D84900401E6A
:10073000B0FBF1F2521CC2F30B02042A01D20420D6
:1007400022E0B0FBF1F0401CC0F30B001CE0A268FB
:10075000F2B301EBC10303EB0116431EB3FBF6F347
:100760005B1C43F480431B0549D092B301EBC102EB
:1007700002EB0111401EB0FBF1F0401CC0F30B0076
:1007800040F4804040F400402168CA694CF6FF7391
:100790009A431043C861D4E90710014320680268F6
:1007A00022F0C00211430160D4E903010143206833
:1007B000826848F2FF339A4311438160D4E905010E
:1007C00008432168CA6822F0FF021043C86001E0B4
:1007D0000EE016E02068016841F001010160256427
:1007E000202084F83D00256384F83E50002070BD31
:1007F00001EB4106431EB3FBF6F35B1CB3E701209C
:10080000C2E701EB4101401EB0FBF1F0401CC0F318
:100810000B00B7E7A086010080841E0000093D00A0
:1008200040420F002DE9FF4F83B09A46DDE9119752
:1008300093460446DDF84080FFF72AFF054694F80A
:100840003D0020287FD119230122404920460095F0
:1008500000F07CFC002876D194F83C00012872D08E
:10086000012084F83C0020680168C90703D10168B1
:1008700041F0010101602068016821F4006101601C
:10088000212084F83D00402084F83E0000262664A4
:10089000C4F82480A4F82A90608D20852C48E0625A
:1008A000CDE9007553465A462046049900F0CEFB28
:1008B00070B930E02A463946204600F0EDFC58B1C8
:1008C000206C042804D12068016841F400710160A3
:1008D000012007B0BDE8F08F606A216800780861E8
:1008E000606A401C6062218D491E89B22185628D3B
:1008F000521E628522685369DB435B070BD469B1E2
:1009000000781061606A401C6062208D401E208566
:10091000608D401E6085208D0028CBD12A46394647
:10092000204600F0E7FB0028CAD154F83D0B0168CF
:1009300041F400710160202004F81E09E677667713
:100940000020C6E7FFE70220C3E700000200100016
:100950000000FFFF10B586B0044614216846FFF77B
:1009600002FD13492068884220D112480021026804
:1009700042F002020260006800F002000590C02010
:1009800000901220CDE9010103200390042004907F
:1009900069460948FFF784FD06481030016841F4B4
:1009A00000110160006800F40010059006B010BD51
:1009B0000054004030380240000402400248816880
:1009C00002781144816070471C0000200B4810B56C
:1009D000016841F400710160016841F480610160C7
:1009E000016841F480710160032000F061F80F207C
:1009F00000F006F800F024F8002010BD003C024092
:100A000070B50D4D04464FF47A712878B1FBF0F0C3
:100A10000A490968B1FBF0F000F0ECFA48B9102C73
:100A200007D200222146501E00F022F800206C6000
:100A300070BD012070BD00001C00002028000020B7
:100A40000A4808B5016841F480410160006800F47B
:100A5000804000900548001F016841F0805101600E
:100A6000006800F08050009008BD0000443802404B
:100A7000F0B40E4B1B680C46C3F30223C3F1070509
:100A8000042D00D90425191D072901D2002300E0F7
:100A9000DB1E012606FA05F1491E214099409E40C1
:100AA000761E16403143F0BC00F0C9BC0CED00E0EE
:100AB000064900F0070208684FF6FF03184040EAB5
:100AC0000220034A10430860704700000CED00E06C
:100AD0000000FA052DE9F0470E46050065D0DFF865
:100AE0001481D8F80000F7B200F00700B04207D236
:100AF00088F80070D8F8000000F00700B04254D128
:100B000028683D4C810712D5400703D5206840F482
:100B1000E05020602878000703D5206840F460404A
:100B200020602068A96820F0F00008432060287841
:100B3000C0072DD0304968680839012812D0022832
:100B400013D0032811D00968890700292DDA2168FC
:100B500021F0030101432160FFF79AFD814641F234
:100B6000883A0EE009688903EFE709688901ECE734
:100B7000FFF78EFDA0EB0901514502D90320BDE826
:100B8000F0872068696800F00C00B0EB810FEFD1AE
:100B9000D8F80010404601F00701B14207D90770AC
:100BA000006800F00700B04201D00120E7E7287894
:100BB000400705D52068E96820F4E050084320602C
:100BC0002878000706D52068296920F4604040EAAB
:100BD000C100206000F028F82168084AC1F3031121
:100BE000515CC8400649086006480068FFF708FFE6
:100BF0000020C4E7003C024008380240162B0008E1
:100C000028000020200000200448054900680968E9
:100C1000044AC1F38221515CC8407047280000207B
:100C200008380240262B0008154810B5006810F05F
:100C30000C02144813D04110042A0FD0082A0ED1F8
:100C40000F4C241F2268236802F03F025B0207D585
:100C50002068C0F38810A0FB010106E0084610BD23
:100C60002168C1F38811A1FB00010023FFF7FCFA02
:100C70002168C1F30141491C4900B0FBF1F010BDEE
:100C8000083802400024F4002DE9F84F04006ED02B
:100C90002078DFF84C93C007A9F104054AD009F188
:100CA00004000168C1F38101012908D00068C0F384
:100CB000810002280AD1D9F80000400206D5286830
:100CC000800337D560680028E1D033E06068B0F574
:100CD000803F10D0B0F5A02F286810D020F48030CD
:100CE0002860286820F4802028606068A8B1FFF799
:100CF000CFFC06460DE0286840F48030F4E740F46D
:100D000080202860F7E700BFFFF7C2FC801B642843
:100D100073D828688003F7D50CE0FFF7B9FC0646C6
:100D200005E000BFFFF7B4FC801B6428F0D82868FA
:100D30008003F7D42078DFF8AC8280074FF0000AF8
:100D40003ED5A748001D016811F00C0F08D00068BF
:100D5000C0F3810002280BD1D9F80000400207D46B
:100D60002868800716D5E068012800D112E033E139
:100D7000E068B8B10120C8F80000FFF789FC06461A
:100D800005E000BFFFF784FC801B0228C0D828685C
:100D90008007F7D52868216920F0F80040EAC100F3
:100DA00028600DE0C8F800A0FFF772FC064604E0DA
:100DB000FFF76EFC801B02281FD828688007F7D435
:100DC0002078000722D5864F87486169703771B156
:100DD00001210160FFF75CFC064604E0FFF758FCC8
:100DE000801B022809D838688007F7D50EE0C0F8C4
:100DF00000A0FFF74DFC064605E082E0FFF748FC47
:100E0000801B02287DD838688007F7D420784007F7
:100E100068D5DFF8CCB100270BF13C0BDBF8000004
:100E2000C0000BD4DBF8001041F08051CBF800106B
:100E3000DBF80000012700F0805000906B4E306816
:100E4000C00510D4306840F480703060FFF720FC9B
:100E5000009005E0FFF71CFC0099401A022850D8CA
:100E60003068C005F6D55E4EA0686C3601280FD0FC
:100E70000528306810D020F001003060306820F084
:100E800004003060A068B8B1FFF702FC00900FE0EA
:100E9000306840F00100F4E740F004003060F7E70C
:100EA000FFF7F6FB0099411A41F28830814266D87B
:100EB00030688007F4D50EE0FFF7EAFB009007E00A
:100EC000FFF7E6FB0099411A41F28830814256D87B
:100ED00030688007F4D42FB1DBF8001021F0805186
:100EE000CBF80010A069C8B33D49091D0968C1F3DA
:100EF000810102294AD00228504607D0C8F8600074
:100F000000E03CE0FFF7C4FB04463BE04746C8F87E
:100F10006000FFF7BDFB064605E000BFFFF7B8FB2A
:100F2000801B02282BD828688001F7D4D4E9070158
:100F30000843A16A2E4A490802EB0141626A41EA6C
:100F40008211084394F82C1040EA0161C9F800109E
:100F500001203866FFF79CFB044606E03EE000BF38
:100F6000FFF796FB001B022809D828688001F7D5F7
:100F700034E000BFFFF78CFB001B022802D90320DE
:100F8000BDE8F88F28688001F4D427E00128F7D065
:100F9000D9F80000E26900F4800191421CD1226A74
:100FA00000F03F01914217D147F6C071626A0140DB
:100FB000B1EB821F10D1A26A4FF0FF3300F4403131
:100FC00003EB5202B1EB024F06D194F82C1000F063
:100FD0007060B0EB016F01D00120D1E70020CFE7B6
:100FE0000438024000004742800E47420070004033
:100FF0000000FFFF10B5401EB0F1807F01D301203B
:1010000010BD4FF0E02460610F21601700F017FA67
:101010000020A06107202061002010BDFEE70168CC
:101020004A69D24352050FD46FF480624A610021AD
:1010300040F8301F202242738173026942F004029B
:101040000261017301207047002070472DE9F843C9
:10105000044600680D46DDE9089701689846164683
:1010600041F4807101604B4600224FF0011120468F
:10107000009700F06BF848B120680068C00502D501
:101080004FF4007020640320BDE8F883216805F068
:10109000FE0008613B464A461549204600F09EF88E
:1010A00088B920684169806900903A4649462046DF
:1010B00000F0F2F848B1206C042804D120680168DF
:1010C00041F4007101600120DEE7F5B2B8F1010FD3
:1010D00009D02168300A08613A464946204600F0A6
:1010E000DBF80028E7D1206805610020CCE700008C
:1010F0000200010070B516460D4604461EE020466B
:10110000FFF78DFF08B1012070BD681C16D0FFF7F6
:10111000BFFA801BA84200D885B920684069C04347
:1011200040070BD5002044F8300F20216173A073D5
:10113000216941F0200121612073E4E720684069C2
:10114000C0434007DBD4002070BD00002DE9F0470C
:10115000984617460D460446C1F30746DDF8209031
:101160002AE000BFB8F1FF3F26D0FFF791FAA0EBCD
:101170000901414502D8B8F1000F1DD12068012EA8
:1011800016D0806925EA00000004000C12D000206F
:10119000B84211D1002044F8300F20216173A073B0
:1011A000216941F02001216120730120BDE8F08711
:1011B0004069E7E70120EBE72068012E0AD080694B
:1011C00025EA00000004000C06D00020B842C9D077
:1011D0000020EBE74069F3E70120F7E72DE9F0474E
:1011E000984616460D4604464FF000094FF0200A77
:1011F000C1F3074723E020684069C043400515D488
:101200002068016841F40071016021686FF480601A
:101210004861C4F8309084F83DA084F83E90216C79
:1012200041F00401216484F83C9021E0701C06D058
:10123000FFF72EFAA0EB0800B04203D816B1012F39
:101240001FD021E02068012F15D0806925EA000019
:101250000004000C18D000BF44F8309F84F80DA0A3
:1012600084F80E90216941F02001216184F80C90EE
:101270000120BDE8F087406925EA00000004000C69
:10128000EAD12068406901E02068806925EA000011
:101290000004000CAFD1ECE770B516460D460446CD
:1012A0001EE02046FFF7BBFE08B1012070BD681CA0
:1012B00016D0FFF7EDF9801BA84200D885B9206849
:1012C0004069C04300060BD5002044F8300F2021B0
:1012D0006173A073216941F0200121612073E4E76B
:1012E00020684069C0430006DBD4002070BD0000C8
:1012F00000B587B014216846FFF735F81148002182
:10130000026842F080020260026802F080020592E8
:10131000026842F001020260026802F001020592D6
:10132000026842F002020260006800F002000590CC
:101330000120CDE90001029069460348FFF7B0F8AB
:1013400007B000BD30380240000002400D4810B523
:101350000B4901600C49416000214FF480428160DB
:10136000C0E9031241618161C1610162FFF796F931
:10137000002803D0BDE81040FFF77DB810BD000085
:10138000005400402C040020A0860100FEE7FEE788
:1013900070477047FFF712BB30B593B030216846F5
:1013A000FEF7E1FF14210CA8FEF7DDFF1D48002524
:1013B000016841F080510160006800F08050119098
:1013C0001948016841F4804101600068022400F47A
:1013D0008040119001200090000401908001CDE92F
:1013E000064008AA0420A82182E813000B90684652
:1013F000FFF74AFC08B172B6FEE70CA90F2081E89E
:1014000031004FF4A0500F904FF480501090052100
:101410000CA8FFF75FFB002801D072B6FEE713B0FF
:1014200030BD0000403802400070004002480168B2
:1014300041F470010160704788ED00E0FEE70907A4
:10144000090E002804DB00F1E02080F8001470474A
:1014500000F00F0000F1E02080F8141D704700003C
:10146000FFF7B4FAFFF798FFFFF742FFFFF76EFFB1
:1014700000F084F8002000F075F800F009F900BFD2
:1014800000F0F6F8FCE700001CB50446052812D26F
:10149000002000F067F801214020CDE90001064856
:1014A0000021802350F82420084600F007F8BDE80A
:1014B0001C4000F0EDB81CBD080000202DE9FF4FD6
:1014C00081B08346D81D0026DDF838A01F46884627
:1014D0004FEAD009BBF1800F28D2B8F1400F25D2D6
:1014E000002521E0002415FB09F0009014E06007BE
:1014F00002D07006060E04E00399009801EBD401B7
:10150000465C300606D50BEB0400C0B241460F9A8C
:1015100000F010F8641CE4B2BC42E8D36D1C08F182
:101520000100EDB200F0FF085545DBD305B0BDE882
:10153000F08F000030B580280ED240290CD2012453
:1015400001F00705AC40064BC90800EBC110012AA9
:10155000195C02D0A143195430BD2143FBE70000C0
:101560002C00002028B1FF224FF480610248FEF7D2
:10157000F2BE0022F8E700002C00002010B5642025
:10158000FEF77CFF002000F067F8202000F09CF8B8
:10159000002000F099F8B02000F096F8C82000F084
:1015A00093F8002000F090F8102000F08DF8402013
:1015B00000F08AF8FF2000F045F8A12000F084F840
:1015C000A62000F081F8A82000F07EF83F2000F06F
:1015D0007BF8A42000F078F8D32000F075F8002004
:1015E00000F072F8D52000F06FF8F02000F06CF8F1
:1015F000D92000F069F8222000F066F8DA2000F027
:1016000063F8122000F060F8DB2000F05DF8202085
:1016100000F05AF88D2000F057F8142000F054F82C
:10162000012000F019F80020FFF79CFF00F030F8CF
:1016300003480021018041800121017110BD00009B
:101640000000002010B50446812000F03DF820463F
:10165000BDE8104000F038B8044910B1AF200122B5
:1016600001E0AE2000224A7100F02EB800000020F8
:1016700000244FF47A7605252046FFF705FF304613
:10168000FEF7FCFE641CB4FBF5F005FB1044F3E729
:1016900070B50C4D002400BF04F1B000C0B200F0E2
:1016A00013F8002000F010F8102000F00DF805EB02
:1016B000C410802100F01AF8641CE4B2082CEBD3AB
:1016C00070BD00002C00002001B584B001214FF056
:1016D000FF3204A88DE807000B460022782102485B
:1016E000FFF7A0F805B000BD2C0400200EB54FF0A8
:1016F000FF3289B28DE80700012340227821024899
:10170000FFF790F80EBD00002C0400204FF0407051
:10171000E1EE100A7047FFFFFFFFFFFFFFFFFFFF33
:10172000FFFFFFFFFFFFFFFFFFFFFFFFFFFFFFFFC9
:10173000FFFFFFFFFFFFFFFFFFFFFFFFFFFFFFFFB9
:10174000FFFFFFFFFFFFFFFFFFFFFFFFFFFFFFFFA9
:10175000FFFFFFFFFFFFFFFFFFFFFFFFFFFFFFFF99
:10176000FFFFFFFFFFFFFFFFFFFFFFFFFFFFFFFF89
:10177000FFFFFFFFFFFFFFFFFFFFFFFFFFFFFFFF79
:10178000FFFFFFFFFFFFFFFFFFFFFFFFFFFFFFFF69
:10179000FFFFFFFFFFFFFFFFFFFFFFFFFFFFFFFF59
:1017A000FFFFFFFFFFFFFFFFFFFFFFFFFFFFFFFF49
:1017B000FFFFFFFFFFFFFFFFFFFFFFFFFFFFFFFF39
:1017C000FFFFFFFFFFFFFFFFFFFFFFFFFFFFFFFF29
:1017D000FFFFFFFFFFFFFFFFFFFFFFFFFFFFFFFF19
:1017E000FFFFFFFFFFFFFFFFFFFFFFFFFFFFFFFF09
:1017F000FFFFFFFFFFFFFFFFFFFFFFFFFFFFFFFFF9
:10180000FFFFFFFFFFFFFFFFFFFFFFFFFFFFFFFFE8
:10181000FFFFFFFFFFFFFFFFFFFFFFFFFFFFFFFFD8
:10182000FFFFFFFFFFFFFFFFFFFFFFFFFFFFFFFFC8
:10183000FFFFFFFFFFFFFFFFFFFFFFFFFFFFFFFFB8
:10184000FFFFFFFFFFFFFFFFFFFFFFCFFFFFFFFFD8
:10185000FE7FFFFFFFFFFFFFFFFFFF9FFFFFFFFF79
:10186000FF3FFFFFFFFFFFFFFFFFFF3FFFFFFFFF08
:10187000FF9FFFFFFFFFFFFFFFFFFF3BFFFFFFFF9C
:10188000F39FFFFFFFFFFFFFFFFFFE7CFFFFFFFF58
:10189000C7CFFFFFFFFFFFFFFFFFFE7F3FFFFFFF01
:1018A0001FCFFFFFFFFFFFFFFFFFFE7FCFFBFBFC14
:1018B0007FCFFFFFFFFFFFFFFFFFFCFFF1FBFBF10F
:1018C000FFE7FFFFFFFFFFFFFFFFFCFFFC7DF7C708
:1018D000FFE7FFFFFFFFFFFFFFFFFCFFFC7DFFCFE8
:1018E000FFE7FFFFFFFFFFFFFFFFFCFFF1FEEFF34E
:1018F000FFE7FFFFFFFFFFFFFFFFFCFFC7FEFFFC4F
:101900007FE7FFFFFFFFFFFFFFFFFCFF1FFF5FFF02
:101910001FE7FFFFFFFFFFFFFFFFFCFCFFFF3FFF95
:10192000C7E7FFFFFFFFFFFFFFFFFCFBFFFFBFFF5E
:10193000F3E7FFFFFFFFFFFFFFFFFCFFFFFFFFFFDE
:10194000FFE7FFFFFFFFFFFFFFFFFCFFFFFFFFFFC2
:10195000FFCFFFFFFFFFFFFFFFFFFE78007FFF804D
:1019600003CFFFFFFFFFFFFFFFFFFE7FFFFFFFFF34
:10197000FFCFFFFFFFFFFFFFFFFFFE7FFFFFFFFF28
:10198000FF9FFFFFFFFFFFFFFFFFFF3FFFFFFFFF87
:10199000FF9FFFFFFFFFFFFFFFFFFF98007FFFC0DC
:1019A000033FFFFFFFFFFFFFFFFFFF98007FFFC028
:1019B000037FFFFFFFFFFFFFFFFFFFFFFFFFFFFFB3
:1019C000FFFFFFFFFFFFFFFFFFFFFFFFFFFFFFFF27
:1019D000FFFFFFFFFFFFFFFFFFFFFFFFFFFFFFFF17
:1019E000FFFFFFFFFFFFFFFFFFFFFFFFFFFFFFFF07
:1019F000FFFFFFFFFFFFFFFFFFFFFFFFFFFFFFFFF7
:101C7000FFFFFFFFFFFFFFE7FFFFEFFFFFFFFFFF9C
:101C8000FEFFFFFCFFFFFFCFFFFFCFFFFFFFFFFFC8
:101C9000FC7FFFFE7FFFFFDFFFFFD7FFFFFFFFFFA0
:101CA000FD7FFFFF3FFFFF9FFFFFB7FFFFFFFFFF2E
:101CB000FD3FFFFF3FFFFFBFFFFFBBFFFE7FCFFFEB
:101CC000FBBFFFFFBFFFFFBFFFFF3BFFFE7FCFFF5D
:101CD000FB9FFFFF9FFFFF3F007F7DFFFEFFE7FFB2
:101CE000F7DFC01F9FFFFF3FFFFE7CFE7CF9E7C7C9
:101CF000F7CFFFFFDFFFFF3FFFFEFEFE7CF9E7C7E8
:101D0000E7E7FFFFDFFFFF3FFFFFFFFFFCF9E7FF14
:101D1000FFFFFFFFDFFFFF3F007FFFFFFCF9E7FF53
:101D2000FFFFC01FDFFFFF3FFFFFFFFFFCF1E7FFEB
:101D3000FFFFFFFFDFFFFF3FFFFFFFFFFE71C7FF5A
:101D4000FFFFFFFF9FFFFFBFFFFFFFFFFE040FFF2F
:101D5000FFFFFFFF9FFFFFBFFFFFFFFFFF0E1FFF04
:101D6000FFFFFFFFBFFFFF9FFFFFFFFFFFFFFFFF23
:101D7000FFFFFFFF3FFFFFDFFFFFFFFFFFFFFFFF53
:101D8000FFFFFFFF3FFFFFCFFFFFFFFFFFFFFFFF53
:101D9000FFFFFFFE7FFFFFE7FFFFFFFFFFFFFFFFEC
:101DA000FFFFFFFCFFFFFFFFFFFFFFFFFFFFFFFF46
:101DB000FFFFFFFFFFFFFFFFFFFFFFFFFFFFFFFF33
:101DC000FFFFFFFFFFFFFFFFFFFFFFFFFFFFFFFF23
:101DD000FFFFFFFFFFFFFFFFFFFFFFFFFFFFFFFF13
:101DE000FFFFFFFFFFFFFFFFFFFFFFFFFFFFFFFF03
:10205000FFFFFFFFFFFFFFFFFFF8000003FFFFFE92
:10206000000000FFFFFFFFFFFF38000007FFFFFE3B
:10207000000001EFFFFFFFFFFE7FFFFFFFFFFFFFFD
:10208000FFFFFFE7FFFFFFFFFE7FFFFFFFFFFFFFF9
:10209000FFFFFFF3FFFFFFFFFCFFFFFFFFFFFFFF5F
:1020A000FFFFFFF9FFFFFFFFFCFFFFFFFFFFFFFF49
:1020B000FFFFFFF9FFFFFFFFF9FFFFFFFFFE3FFFFD
:1020C000FFFFFFFDFFFFFFFFF9FFFFFFFFFC1FFF0B
:1020D000FFFFFFFCFFFFFFFFF9FFFFFFFFF1CFFF57
:1020E000FFFFFFFCFFFFFFFFF9FFFFFFFFE3E3FF41
:1020F000FFFFFFFCFFFFFFFFF3FFFFFFFFC7F1FF45
:10210000FFFFFFFCFFFFFFFFF3FFFFFFFF8FF8FF65
:10211000FFFFFFFCFFFFFFFFF3FFFFFFFF3FFE7F1F
:10212000FFFFFFFCFFFFFFFFF3FFFFFFFFFFFF1FAE
:10213000FFFFFFFCFFFFFFFFF3FFFFFFFFFFFF8F2E
:10214000FFFFFFFCFFFFFFFFF3FFFFFFFFFFFFC7E6
:10215000FFFFFFFCFFFFFFFFF9FFFFFFFFFFFFFF98
:10216000FFFFFFFCFFFFFFFFF9FFFFFFFFFFFFFF88
:10217000FFFFFFFCFFFFFFFFF9FFFFFFFFFFFFFF78
:10218000FFFFFFFCFFFFFFFFFCFFFFFFFFFFFFFF65
:10219000FFFFFFF9FFFFFFFFFCFFFFFFFFFFFFFF58
:1021A000FFFFFFF9FFFFFFFFFE7FFFFFFFFFFFFFC6
:1021B000FFFFFFF3FFFFFFFFFE7FFFFFFFFFFFFFBC
:1021C000FFFFFFF3FFFFFFFFFF3FFFFFFFFFFFFFEB
:1021D000FFFFFFE7FFFFFFFFFFFFFFFFFFFFFFFF27
:1021E000FFFFFFFFFFFFFFFFFFFFFFFFFFFFFFFFFF
:1021F000FFFFFFFFFFFFFFFFFFFFFFFFFFFFFFFFEF
:10220000FFFFFFFFFFFFFFFFFFFFFFFFFFFFFFFFDE
:10221000FFFFFFFFFFFFFFFFFFFFFFFFFFFFFFFFCE
:10241000FFFFFFFFFFFFFFFFE03FFFFFFFFFFFFFAB
:10242000FFFFFF80FFFFFFFFE03FFFFFFFFFFFFF1A
:10243000FFFFFF80FFFFFFFFE07FFFFFFFFFFFFFCA
:10244000FFFFFFC0FFFFFFFFE0FFFFFFFFFFFFFFFA
:10245000FFFFFFE0FFFFFFFFE1FFFFFFFFFFFFFFC9
:10246000FFFFFFF0FFFFFFFFE1FFFFFFFFFFFFFFA9
:10247000FFFFFFF0FFFFFFFFE3FFFFFFFFFFFFFF97
:10248000FFFFFFF8FFFFFFFFE3FFFFFFFFCFFE7F30
:10249000FFFFFFF8FFFFFFFFE3FFFFFFFF8FFE7F60
:1024A000FFFFFFF8FFFFFFFFE7FFFFFFFF9FFE3F7C
:1024B000FFFFFFF8FFFFFFFFE7FFFFFFFF9FFF3F6B
:1024C000FFFFFFF8FFFFFFFFE7FFFF0FFF1F3F3F8B
:1024D000FE1FFFF8FFFFFFFFE7FFFF0FFF3F3F3F3C
:1024E000FE1FFFF8FFFFFFFFE7FFFF1FFF3F3F1F3C
:1024F000FE3FFFF8FFFFFFFFE7FFFFFFFF3F3F1F2C
:10250000FFFFFFF8FFFFFFFFE3FFFFFFFF3F3F1F5E
:10251000FFFFFFF8FFFFFFFFE3FFFFFFFF3F1F1F6E
:10252000FFFFFFF8FFFFFFFFE3FFFFFFFF1F1F3F5E
:10253000FFFFFFF8FFFFFFFFE1FFFFFFFF9E1E3FD2
:10254000FFFFFFF0FFFFFFFFE1FFFFFFFF80407F86
:10255000FFFFFFF0FFFFFFFFE0FFFFFFFFE0E0FFF7
:10256000FFFFFFE0FFFFFFFFE0FFFFFFFFFFFFFFB9
:10257000FFFFFFC0FFFFFFFFE07FFFFFFFFFFFFF49
:10258000FFFFFFC0FFFFFFFFE03FFFFFFFFFFFFF79
:10259000FFFFFF80FFFFFFFFFFFFFFFFFFFFFFFFCA
:1025A000FFFFFFFFFFFFFFFFFFFFFFFFFFFFFFFF3B
:1025B000FFFFFFFFFFFFFFFFFFFFFFFFFFFFFFFF2B
:1025C000FFFFFFFFFFFFFFFFFFFFFFFFFFFFFFFF1B
:1025D000FFFFFFFFFFFFFFFFFFFFFFFFFFFFFFFF0B
:10284000FFFFFFFFFFFFFFFFFFFFF3FFFFFFFFFFA4
:10285000FFFF3FFFFFFFFFFFFFFFE7FFFFFFFFFF60
:10286000FFFF9FFFFFFFFFFFFFFFCFFFFFFFFFFF08
:10287000FFFFCFFFFFFFFFFFFFFFCFFFFFFFFFFFC8
:10288000FFFFCFFFFFFFFFFFFFFF9FFFFFFFFFFFE8
:10289000FFFFE7FFFFFFFFFFFFFF9FFFFFE7FFBF18
:1028A000FFFFE7FFFFFFFFFFFFFF9FFFFFE7FF9F28
:1028B000FFFFE7FFFFFFFFFFFFFF3FFFFFC7FF9F98
:1028C000FFFFF3FFFFFFFFFFFFFF3E0001CFFF8C85
:1028D0000001F3FFFFFFFFFFFFFF3C0000CFCF8CA5
:1028E0000001F3FFFFFFFFFFFFFF3C0000CFCFCC55
:1028F0000001F3FFFFFFFFFFFFFF3FF33FCFCFCF0D
:10290000E33FF3FFFFFFFFFFFFFF3FF33F8FCFCF1B
:10291000E33FF3FFFFFFFFFFFFFF3FF33F8FCFCF0B
:10292000E33FF3FFFFFFFFFFFFFF3FF33FCFCFCFBB
:10293000E33FF3FFFFFFFFFFFFFF3FF33FCF8FCFEB
:10294000E33FF3FFFFFFFFFFFFFF3FF33FC7879F1B
:10295000E33FE7FFFFFFFFFFFFFF9FF33FE0201F85
:10296000E33FE7FFFFFFFFFFFFFF9FF33FF0703FF5
:10297000E33FE7FFFFFFFFFFFFFF9FF33FFFFFFF87
:10298000E33FCFFFFFFFFFFFFFFFCFF33FFFFFFF5F
:10299000E33FCFFFFFFFFFFFFFFFE7F33FFFFFFF37
:1029A000E33F9FFFFFFFFFFFFFFFE7F33FFFFFFF57
:1029B000E33FBFFFFFFFFFFFFFFFFFFFFFFFFFFF43
:1029C000FFFFFFFFFFFFFFFFFFFFFFFFFFFFFFFF17
:1029D000FFFFFFFFFFFFFFFFFFFFFFFFFFFFFFFF07
:1029E000FFFFFFFFFFFFFFFFFFFFFFFFFFFFFFFFF7
:1029F000FFFFFFFFFFFFFFFFFFFFFFFFFFFFFFFFE7
:102A0000FFFFFFFFFFFFFFFFFFFFFFFFFFFFFFFFD6
:102A1000FFFFFFFFFFFFFFFFFFFFFFFFFFFFFFFFC6
:102A2000FFFFFFFFFFFFFFFFFFFFFFFFFFFFFFFFB6
:102A3000FFFFFFFFFFFFFFFFFFFFFFFFFFFFFFFFA6
:102A4000FFFFFFFFFFFFFFFFFFFFFFFFFFFFFFFF96
:102A5000FFFFFFFFFFFFFFFFFFFFFFFFFFFFFFFF86
:102A6000FFFFFFFFFFFFFFFFFFFFFFFFFFFFFFFF76
:102A7000FFFFFFFFFFFFFFFFFFFFFFFFFFFFFFFF66
:102A8000FFFFFFFFFFFFFFFFFFFFFFFFFFFFFFFF56
:102A9000FFFFFFFFFFFFFFFFFFFFFFFFFFFFFFFF46
:102AA000FFFFFFFFFFFFFFFFFFFFFFFFFFFFFFFF36
:102AB000FFFFFFFFFFFFFFFFFFFFFFFFFFFFFFFF26
:102AC000FFFFFFFFFFFFFFFFFFFFFFFFFFFFFFFF16
:102AD000FFFFFFFFFFFFFFFFFFFFFFFFFFFFFFFF06
:102AE000FFFFFFFFFFFFFFFFFFFFFFFFFFFFFFFFF6
:102AF000FFFFFFFFFFFFFFFFFFFFFFFFFFFFFFFFE6
:102B0000FFFFFFFFFFFFFFFFFFFFFFFFFFFFFFFFD5
:102B1000FFFFFFFFFFFF00000000000000000102B8
:102B20000304060708090000000001020304000076
:102B3000502B0008000000202C000000C4010008F9
:102B40007C2B00082C000020B40A0000E0010008E3
:102B5000000000000000000016170008161B000807
:102B6000161F0008162300081627000801000000A1
:0C2B700010000000000000000024F40031
:040000050800018965
:00000001FF
